{
  "contractName": "Fish",
  "abi": [
    {
      "constant": true,
      "inputs": [],
      "name": "ThisFish",
      "outputs": [
        {
          "name": "Rarity",
          "type": "uint256"
        },
        {
          "name": "Weight",
          "type": "uint256"
        },
        {
          "name": "Owner",
          "type": "address"
        },
        {
          "name": "Price",
          "type": "uint256"
        },
        {
          "name": "OnOrder",
          "type": "bool"
        }
      ],
      "payable": false,
      "stateMutability": "view",
      "type": "function"
    },
    {
      "inputs": [
        {
          "name": "_owner",
          "type": "address"
        },
        {
          "name": "_fishRodLevel",
          "type": "uint256"
        }
      ],
      "payable": false,
      "stateMutability": "nonpayable",
      "type": "constructor"
    },
    {
      "constant": true,
      "inputs": [],
      "name": "Rarity",
      "outputs": [
        {
          "name": "",
          "type": "uint256"
        }
      ],
      "payable": false,
      "stateMutability": "view",
      "type": "function"
    },
    {
      "constant": true,
      "inputs": [
        {
          "name": "_fishRodLevel",
          "type": "uint256"
        }
      ],
      "name": "Weight",
      "outputs": [
        {
          "name": "",
          "type": "uint256"
        }
      ],
      "payable": false,
      "stateMutability": "view",
      "type": "function"
    },
    {
      "constant": true,
      "inputs": [
        {
          "name": "_weight",
          "type": "uint256"
        },
        {
          "name": "_rarity",
          "type": "uint256"
        }
      ],
      "name": "Price",
      "outputs": [
        {
          "name": "",
          "type": "uint256"
        }
      ],
      "payable": false,
      "stateMutability": "pure",
      "type": "function"
    },
    {
      "constant": true,
      "inputs": [],
      "name": "GetDetails",
      "outputs": [
        {
          "name": "",
          "type": "uint256"
        },
        {
          "name": "",
          "type": "uint256"
        },
        {
          "name": "",
          "type": "uint256"
        },
        {
          "name": "",
          "type": "bool"
        }
      ],
      "payable": false,
      "stateMutability": "view",
      "type": "function"
    },
    {
      "constant": true,
      "inputs": [
        {
          "name": "min",
          "type": "uint256"
        },
        {
          "name": "max",
          "type": "uint256"
        }
      ],
      "name": "Rand",
      "outputs": [
        {
          "name": "",
          "type": "uint256"
        }
      ],
      "payable": false,
      "stateMutability": "view",
      "type": "function"
    },
    {
      "constant": true,
      "inputs": [],
      "name": "GetOrderStatus",
      "outputs": [
        {
          "name": "",
          "type": "bool"
        }
      ],
      "payable": false,
      "stateMutability": "view",
      "type": "function"
    },
    {
      "constant": false,
      "inputs": [],
      "name": "ChangeOrderStatus",
      "outputs": [
        {
          "name": "",
          "type": "bool"
        }
      ],
      "payable": false,
      "stateMutability": "nonpayable",
      "type": "function"
    },
    {
      "constant": false,
      "inputs": [
        {
          "name": "newOwner",
          "type": "address"
        }
      ],
      "name": "ChangeOwnerShip",
      "outputs": [
        {
          "name": "",
          "type": "bool"
        }
      ],
      "payable": false,
      "stateMutability": "nonpayable",
      "type": "function"
    }
  ],
  "bytecode": "0x608060405234801561001057600080fd5b506040516040806109248339810180604052604081101561003057600080fd5b81019080805190602001909291908051906020019092919050505081600160020160006101000a81548173ffffffffffffffffffffffffffffffffffffffff021916908373ffffffffffffffffffffffffffffffffffffffff1602179055506100a661011f640100000000026401000000009004565b6001600001819055506100c781610170640100000000026401000000009004565b60018001819055506100f16001800154600160000154610196640100000000026401000000009004565b6001600301819055506000600160040160006101000a81548160ff02191690831515021790555050506102d1565b60008061013d6001600a6101c0640100000000026401000000009004565b905060058111151561015357600191505061016d565b60088111151561016757600291505061016d565b60039150505b90565b600061018f6001600384026101c0640100000000026401000000009004565b9050919050565b60006101b882846102046401000000000261054b179091906401000000009004565b905092915050565b600082838303426040516020018082815260200191505060405160208183030381529060405280519060200120600190048115156101fa57fe5b0601905092915050565b60008083141561021757600090506102cb565b6000828402905082848281151561022a57fe5b041415156102c6576040517f08c379a00000000000000000000000000000000000000000000000000000000081526004018080602001828103825260218152602001807f536166654d6174683a206d756c7469706c69636174696f6e206f766572666c6f81526020017f770000000000000000000000000000000000000000000000000000000000000081525060400191505060405180910390fd5b809150505b92915050565b610644806102e06000396000f3fe608060405260043610610099576000357c0100000000000000000000000000000000000000000000000000000000900463ffffffff16806313c23f411461009e57806344c57bc6146100cd5780636ff8ec3614610144578063a0bc484f14610193578063b4f6f509146101ec578063be889f4b14610217578063cc2e8cca14610246578063d1353c681461028a578063f853f657146102e3575b600080fd5b3480156100aa57600080fd5b506100b361034c565b604051808215151515815260200191505060405180910390f35b3480156100d957600080fd5b506100e2610366565b604051808681526020018581526020018473ffffffffffffffffffffffffffffffffffffffff1673ffffffffffffffffffffffffffffffffffffffff168152602001838152602001821515151581526020019550505050505060405180910390f35b34801561015057600080fd5b5061017d6004803603602081101561016757600080fd5b81019080803590602001909291905050506103b7565b6040518082815260200191505060405180910390f35b34801561019f57600080fd5b506101d6600480360360408110156101b657600080fd5b8101908080359060200190929190803590602001909291905050506103ce565b6040518082815260200191505060405180910390f35b3480156101f857600080fd5b50610201610412565b6040518082815260200191505060405180910390f35b34801561022357600080fd5b5061022c610454565b604051808215151515815260200191505060405180910390f35b34801561025257600080fd5b5061025b61049e565b604051808581526020018481526020018381526020018215151515815260200194505050505060405180910390f35b34801561029657600080fd5b506102cd600480360360408110156102ad57600080fd5b8101908080359060200190929190803590602001909291905050506104d6565b6040518082815260200191505060405180910390f35b3480156102ef57600080fd5b506103326004803603602081101561030657600080fd5b81019080803573ffffffffffffffffffffffffffffffffffffffff1690602001909291905050506104f3565b604051808215151515815260200191505060405180910390f35b6000600160040160009054906101000a900460ff16905090565b60018060000154908060010154908060020160009054906101000a900473ffffffffffffffffffffffffffffffffffffffff16908060030154908060040160009054906101000a900460ff16905085565b60006103c76001600384026103ce565b9050919050565b6000828383034260405160200180828152602001915050604051602081830303815290604052805190602001206001900481151561040857fe5b0601905092915050565b6000806104216001600a6103ce565b9050600581111515610437576001915050610451565b60088111151561044b576002915050610451565b60039150505b90565b6000600160040160009054906101000a900460ff1615600160040160006101000a81548160ff021916908315150217905550600160040160009054906101000a900460ff16905090565b6000806000806001600001546001800154600160030154600160040160009054906101000a900460ff16935093509350935090919293565b60006104eb828461054b90919063ffffffff16565b905092915050565b600081600160020160006101000a81548173ffffffffffffffffffffffffffffffffffffffff021916908373ffffffffffffffffffffffffffffffffffffffff160217905550610541610454565b5060019050919050565b60008083141561055e5760009050610612565b6000828402905082848281151561057157fe5b0414151561060d576040517f08c379a00000000000000000000000000000000000000000000000000000000081526004018080602001828103825260218152602001807f536166654d6174683a206d756c7469706c69636174696f6e206f766572666c6f81526020017f770000000000000000000000000000000000000000000000000000000000000081525060400191505060405180910390fd5b809150505b9291505056fea165627a7a72305820b55eef01651793e7b3d83b2c2f783e391fe233f785302a84a322ed51274757fd0029",
  "source": "pragma solidity ^0.5.0;\n\nimport './SafeMath.sol';\n/**\n  @title Public\n  @notice Public functions are part of the contract interface and can be either called internally or via messages.\n  @title View\n  @notice View Function can wrap complex operations, or just provide a way to expose internal component in a safe way.\n */\ncontract Fish  {\n    using SafeMath for uint256;\n    uint256 private nonce;\n  // Structure FishModel.\n    struct FishModel  {\n        uint256 Rarity;\n        uint256 Weight;\n        address Owner;\n        uint256 Price;\n        // uint256 Position;\n        bool OnOrder;\n    }\n    FishModel public ThisFish;\n    // mapping (address=>FishModel) ThisFish;\n    //build new fish \n    constructor(address _owner,uint256 _fishRodLevel) public   {\n        ThisFish.Owner = _owner;\n        ThisFish.Rarity = Rarity();//rarity of fish is selected by block gaslimit,block difficuty and apply this into math function \"mod\"\n        ThisFish.Weight = Weight(_fishRodLevel);//weight is selected by the rod level and using the math fuction\n        ThisFish.Price = Price(ThisFish.Weight,ThisFish.Rarity);//price is define by the weght and rariy\n        // ThisFish.Position = 0;\n        ThisFish.OnOrder = false;\n    }\n//rarity is selected \n    function Rarity() public view returns(uint256)  {\n        uint256 rNumber = Rand(1,10);\n        if(rNumber <= 5){\n            return 1;\n        }else if(rNumber <= 8){\n            return 2;\n        }else{\n            return 3;\n        }\n        // if ((block.gaslimit+block.difficulty+now).mod(100)==0){\n        //     return 3;\n        // }\n        // if ((block.gaslimit+block.difficulty+now).mod(10)==0){\n        //     return 2;\n        // } else{\n        //     return 1;\n        // }\n    }\n    function Weight(uint256 _fishRodLevel) public  view returns(uint256)  {\n        return(Rand(1,_fishRodLevel*3));\n        //return _fishRodLevel.add(now.mod((_fishRodLevel*3)-1));\n    }\n    function Price( uint256 _weight, uint256 _rarity) public pure returns(uint256) {\n        return _weight.mul(_rarity);\n    }\n    function GetDetails() public view returns(uint256,uint256,uint256,bool){\n        return(ThisFish.Rarity,ThisFish.Weight,ThisFish.Price,ThisFish.OnOrder);\n    }\n    function Rand(uint256 min, uint256 max) public view returns(uint256){\n        return(uint256(keccak256(abi.encodePacked(now)))%(max-min)+min);\n    }\n    function GetOrderStatus() public view returns(bool){\n        return(ThisFish.OnOrder);\n    }\n    function ChangeOrderStatus() public returns(bool){\n        ThisFish.OnOrder=!ThisFish.OnOrder;\n        return(ThisFish.OnOrder);\n    }\n    function ChangeOwnerShip(address newOwner) external returns(bool){\n        ThisFish.Owner = newOwner;\n        ChangeOrderStatus();\n        return true;\n    }\n\n    }",
  "sourcePath": "/home/denny/Code/FishingFrenzy/contracts/Fish.sol",
  "compiler": {
    "name": "solc",
    "version": "0.5.0+commit.1d4f565a.Emscripten.clang"
  },
  "schemaVersion": "3.0.16",
  "updatedAt": "2019-10-06T10:55:08.367Z",
  "devdoc": {
    "methods": {},
    "title": "PublicView"
  },
  "userdoc": {
    "methods": {},
    "notice": "Public functions are part of the contract interface and can be either called internally or via messages.View Function can wrap complex operations, or just provide a way to expose internal component in a safe way."
  }
}