{
  "contractName": "Fish",
  "abi": [
    {
      "constant": true,
      "inputs": [],
      "name": "ThisFish",
      "outputs": [
        {
          "name": "Rarity",
          "type": "uint256"
        },
        {
          "name": "Weight",
          "type": "uint256"
        },
        {
          "name": "Owner",
          "type": "address"
        },
        {
          "name": "Price",
          "type": "uint256"
        },
        {
          "name": "OnOrder",
          "type": "bool"
        }
      ],
      "payable": false,
      "stateMutability": "view",
      "type": "function"
    },
    {
      "inputs": [
        {
          "name": "_owner",
          "type": "address"
        },
        {
          "name": "_fishRodLevel",
          "type": "uint256"
        }
      ],
      "payable": false,
      "stateMutability": "nonpayable",
      "type": "constructor"
    },
    {
      "constant": false,
      "inputs": [],
      "name": "Rarity",
      "outputs": [
        {
          "name": "",
          "type": "uint256"
        }
      ],
      "payable": false,
      "stateMutability": "nonpayable",
      "type": "function"
    },
    {
      "constant": false,
      "inputs": [
        {
          "name": "_fishRodLevel",
          "type": "uint256"
        }
      ],
      "name": "Weight",
      "outputs": [
        {
          "name": "",
          "type": "uint256"
        }
      ],
      "payable": false,
      "stateMutability": "nonpayable",
      "type": "function"
    },
    {
      "constant": true,
      "inputs": [
        {
          "name": "_weight",
          "type": "uint256"
        },
        {
          "name": "_rarity",
          "type": "uint256"
        }
      ],
      "name": "Price",
      "outputs": [
        {
          "name": "",
          "type": "uint256"
        }
      ],
      "payable": false,
      "stateMutability": "pure",
      "type": "function"
    },
    {
      "constant": true,
      "inputs": [],
      "name": "GetDetails",
      "outputs": [
        {
          "name": "",
          "type": "uint256"
        },
        {
          "name": "",
          "type": "uint256"
        },
        {
          "name": "",
          "type": "uint256"
        },
        {
          "name": "",
          "type": "bool"
        }
      ],
      "payable": false,
      "stateMutability": "view",
      "type": "function"
    },
    {
      "constant": true,
      "inputs": [],
      "name": "GetOrderStatus",
      "outputs": [
        {
          "name": "",
          "type": "bool"
        }
      ],
      "payable": false,
      "stateMutability": "view",
      "type": "function"
    },
    {
      "constant": false,
      "inputs": [],
      "name": "ChangeOrderStatus",
      "outputs": [
        {
          "name": "",
          "type": "bool"
        }
      ],
      "payable": false,
      "stateMutability": "nonpayable",
      "type": "function"
    },
    {
      "constant": false,
      "inputs": [
        {
          "name": "newOwner",
          "type": "address"
        }
      ],
      "name": "ChangeOwnerShip",
      "outputs": [
        {
          "name": "",
          "type": "bool"
        }
      ],
      "payable": false,
      "stateMutability": "nonpayable",
      "type": "function"
    }
  ],
  "bytecode": "0x608060405234801561001057600080fd5b506040516040806108e68339810180604052604081101561003057600080fd5b81019080805190602001909291908051906020019092919050505081600160020160006101000a81548173ffffffffffffffffffffffffffffffffffffffff021916908373ffffffffffffffffffffffffffffffffffffffff1602179055506100a661011f640100000000026401000000009004565b6001600001819055506100c781610170640100000000026401000000009004565b60018001819055506100f16001800154600160000154610196640100000000026401000000009004565b6001600301819055506000600160040160006101000a81548160ff02191690831515021790555050506102e4565b60008061013d6001600a6101c0640100000000026401000000009004565b905060058111151561015357600191505061016d565b60088111151561016757600291505061016d565b60039150505b90565b600061018f6001600384026101c0640100000000026401000000009004565b9050919050565b60006101b88284610217640100000000026104fa179091906401000000009004565b905092915050565b600080600081548092919060010191905055508282840160005460405160200180828152602001915050604051602081830303815290604052805190602001206001900481151561020d57fe5b0603905092915050565b60008083141561022a57600090506102de565b6000828402905082848281151561023d57fe5b041415156102d9576040517f08c379a00000000000000000000000000000000000000000000000000000000081526004018080602001828103825260218152602001807f536166654d6174683a206d756c7469706c69636174696f6e206f766572666c6f81526020017f770000000000000000000000000000000000000000000000000000000000000081525060400191505060405180910390fd5b809150505b92915050565b6105f3806102f36000396000f3fe60806040526004361061008e576000357c0100000000000000000000000000000000000000000000000000000000900463ffffffff16806313c23f411461009357806344c57bc6146100c25780636ff8ec3614610139578063b4f6f50914610188578063be889f4b146101b3578063cc2e8cca146101e2578063d1353c6814610226578063f853f6571461027f575b600080fd5b34801561009f57600080fd5b506100a86102e8565b604051808215151515815260200191505060405180910390f35b3480156100ce57600080fd5b506100d7610302565b604051808681526020018581526020018473ffffffffffffffffffffffffffffffffffffffff1673ffffffffffffffffffffffffffffffffffffffff168152602001838152602001821515151581526020019550505050505060405180910390f35b34801561014557600080fd5b506101726004803603602081101561015c57600080fd5b8101908080359060200190929190505050610353565b6040518082815260200191505060405180910390f35b34801561019457600080fd5b5061019d61036a565b6040518082815260200191505060405180910390f35b3480156101bf57600080fd5b506101c86103ac565b604051808215151515815260200191505060405180910390f35b3480156101ee57600080fd5b506101f76103f6565b604051808581526020018481526020018381526020018215151515815260200194505050505060405180910390f35b34801561023257600080fd5b506102696004803603604081101561024957600080fd5b81019080803590602001909291908035906020019092919050505061042e565b6040518082815260200191505060405180910390f35b34801561028b57600080fd5b506102ce600480360360208110156102a257600080fd5b81019080803573ffffffffffffffffffffffffffffffffffffffff16906020019092919050505061044b565b604051808215151515815260200191505060405180910390f35b6000600160040160009054906101000a900460ff16905090565b60018060000154908060010154908060020160009054906101000a900473ffffffffffffffffffffffffffffffffffffffff16908060030154908060040160009054906101000a900460ff16905085565b60006103636001600384026104a3565b9050919050565b6000806103796001600a6104a3565b905060058111151561038f5760019150506103a9565b6008811115156103a35760029150506103a9565b60039150505b90565b6000600160040160009054906101000a900460ff1615600160040160006101000a81548160ff021916908315150217905550600160040160009054906101000a900460ff16905090565b6000806000806001600001546001800154600160030154600160040160009054906101000a900460ff16935093509350935090919293565b600061044382846104fa90919063ffffffff16565b905092915050565b600081600160020160006101000a81548173ffffffffffffffffffffffffffffffffffffffff021916908373ffffffffffffffffffffffffffffffffffffffff1602179055506104996103ac565b5060019050919050565b60008060008154809291906001019190505550828284016000546040516020018082815260200191505060405160208183030381529060405280519060200120600190048115156104f057fe5b0603905092915050565b60008083141561050d57600090506105c1565b6000828402905082848281151561052057fe5b041415156105bc576040517f08c379a00000000000000000000000000000000000000000000000000000000081526004018080602001828103825260218152602001807f536166654d6174683a206d756c7469706c69636174696f6e206f766572666c6f81526020017f770000000000000000000000000000000000000000000000000000000000000081525060400191505060405180910390fd5b809150505b9291505056fea165627a7a72305820865f750ece9fcaa7fa98a1210bbab03589f81d3fce74ba62073839d3ea74fd6a0029",
  "source": "pragma solidity ^0.5.0;\r\n\r\nimport './SafeMath.sol';\r\n/**\r\n  @title Public\r\n  @notice Public functions are part of the contract interface and can be either called internally or via messages.\r\n  @title View\r\n  @notice View Function can wrap complex operations, or just provide a way to expose internal component in a safe way.\r\n */\r\ncontract Fish  {\r\n    using SafeMath for uint256;\r\n    uint256 private nonce;\r\n  // Structure FishModel.\r\n    struct FishModel  {\r\n        uint256 Rarity;\r\n        uint256 Weight;\r\n        address Owner;\r\n        uint256 Price;\r\n        // uint256 Position;\r\n        bool OnOrder;\r\n    }\r\n    FishModel public ThisFish;\r\n    // mapping (address=>FishModel) ThisFish;\r\n    //build new fish \r\n    constructor(address _owner,uint256 _fishRodLevel) public   {\r\n        ThisFish.Owner = _owner;\r\n        ThisFish.Rarity = Rarity();//rarity of fish is selected by block gaslimit,block difficuty and apply this into math function \"mod\"\r\n        ThisFish.Weight = Weight(_fishRodLevel);//weight is selected by the rod level and using the math fuction\r\n        ThisFish.Price = Price(ThisFish.Weight,ThisFish.Rarity);//price is define by the weght and rariy\r\n        // ThisFish.Position = 0;\r\n        ThisFish.OnOrder = false;\r\n    }\r\n//rarity is selected \r\n    function Rarity() public returns(uint256)  {\r\n        uint256 rNumber = Rand(1,10);\r\n        if(rNumber <= 5){\r\n            return 1;\r\n        }else if(rNumber <= 8){\r\n            return 2;\r\n        }else{\r\n            return 3;\r\n        }\r\n        // if ((block.gaslimit+block.difficulty+now).mod(100)==0){\r\n        //     return 3;\r\n        // }\r\n        // if ((block.gaslimit+block.difficulty+now).mod(10)==0){\r\n        //     return 2;\r\n        // } else{\r\n        //     return 1;\r\n        // }\r\n    }\r\n    function Weight(uint256 _fishRodLevel) public returns(uint256)  {\r\n        return(Rand(1,_fishRodLevel*3));\r\n        //return _fishRodLevel.add(now.mod((_fishRodLevel*3)-1));\r\n    }\r\n    function Price( uint256 _weight, uint256 _rarity) public pure returns(uint256) {\r\n        return _weight.mul(_rarity);\r\n    }\r\n    function GetDetails() public view returns(uint256,uint256,uint256,bool){\r\n        return(ThisFish.Rarity,ThisFish.Weight,ThisFish.Price,ThisFish.OnOrder);\r\n    }\r\n    function Rand(uint256 min, uint256 max) internal returns(uint256){\r\n        nonce++;\r\n        return(uint256(keccak256(abi.encodePacked(nonce)))%(min+max)-min);\r\n    }\r\n    function GetOrderStatus() public view returns(bool){\r\n        return(ThisFish.OnOrder);\r\n    }\r\n    function ChangeOrderStatus() public returns(bool){\r\n        ThisFish.OnOrder=!ThisFish.OnOrder;\r\n        return(ThisFish.OnOrder);\r\n    }\r\n    function ChangeOwnerShip(address newOwner) external returns(bool){\r\n        ThisFish.Owner = newOwner;\r\n        ChangeOrderStatus();\r\n        return true;\r\n    }\r\n\r\n    }",
  "sourcePath": "E:\\Hackathon\\FishingFrenzy\\contracts\\Fish.sol",
  "compiler": {
    "name": "solc",
    "version": "0.5.0+commit.1d4f565a.Emscripten.clang"
  },
  "schemaVersion": "3.0.11",
  "updatedAt": "2019-10-06T09:37:56.327Z",
  "devdoc": {
    "methods": {},
    "title": "Public\rView\r"
  },
  "userdoc": {
    "methods": {},
    "notice": "Public functions are part of the contract interface and can be either called internally or via messages.\rView Function can wrap complex operations, or just provide a way to expose internal component in a safe way.\r"
  }
}